:020000040800F2
:1000000000280020E50800085908000861080008D9
:10001000690800087108000879080008000000005D
:10002000000000000000000000000000810800083F
:100030008D0800080000000099080008A5080008C5
:100040002D0900082D0900082D0900082D090008B8
:100050002D0900082D0900082D0900082D090008A8
:100060002D0900082D0900082D0900082D09000898
:10007000B1080008C50800082D0900082D0900086E
:100080002D0900082D0900082D0900082D09000878
:100090002D0900082D0900082D0900082D09000868
:1000A0002D0900082D0900082D0900082D09000858
:1000B0002D0900082D090008000000002D09000886
:1000C0002D09000800000000000000002D090008B4
:1000D000000000002D0900082D09000800000000A4
:1000E0002D0900082D0900082D0900080000000056
:1000F0000000000000000000000000000000000000
:0C01000000000000000000005FF808F1A3
:10010C0010B5054C237833B9044B13B10448AFF345
:10011C0000800123237010BD0C00002000000000A3
:10012C00882B000808B5034B1BB103490348AFF3F8
:10013C00008008BD0000000010000020882B000883
:10014C0080B582B000AF78607B6823EAE3731A460F
:10015C00134B1A607B68002B02DA7B685B4200E071
:10016C000023104A136001230F4A08210F4801F0A5
:10017C004BFE01230E4A0C210C4801F045FE0123D5
:10018C00074A0821094801F03FFE0123054A0C21CA
:10019C00064801F039FE00BF0837BD4680BD00BFE0
:1001AC006C01002068010020A42B000850000020E6
:1001BC00A02B000880B582B000AF00F0B3FB00F0BC
:1001CC0041F800F06DF900F045F900F081F800F00D
:1001DC00B3F800F015F900237B6013E07A6813463E
:1001EC009B0013449B001846FFF7AAFF00224FF414
:1001FC000051134801F090F9C82000F0F5FB7B6822
:10020C0001337B607B68042BE8DD04233B6013E047
:10021C003B686FF0130202FB03F31846FFF790FFE5
:10022C0001224FF40051064801F076F9C82000F085
:10023C00DBFB3B68013B3B603B68002BE8DACAE721
:10024C000010014080B590B000AF07F118032822D0
:10025C000021184602F066FC3B1D00221A605A6011
:10026C009A60DA601A610123BB614FF48033FB6141
:10027C0000233B620123BB6202237B634FF4803378
:10028C00BB634FF4E013FB6307F11803184601F04E
:10029C005BF90346002B01D000F05AF90F237B6069
:1002AC000223BB600023FB604FF480633B6100239F
:1002BC007B613B1D0221184601F0C8FB0346002B55
:1002CC0001D000F045F900BF4037BD4680BD0000AD
:1002DC0080B500AF164B174A1A60154B10225A60A6
:1002EC00134B00229A60124B0022DA60104B002252
:1002FC001A610F4B00225A610D4B00221A760C4BDF
:10030C0000225A760A4B00229A76094B0022DA76A2
:10031C00074B00221A77064B00225A77044800F04C
:10032C0087FB0346002B01D000F012F900BF80BD03
:10033C00280000200064004080B58AB000AF07F1AF
:10034C00200300221A605A603B1D00221A605A607A
:10035C009A60DA601A615A619A61274B274A1A60CF
:10036C00254B00225A60244B00229A60224B6322B8
:10037C00DA60214B00221A611F4B00229A611E4841
:10038C0001F0F2FC0346002B01D000F0E1F8002351
:10039C003B6200237B6207F120031946164802F0EA
:1003AC008BFA0346002B01D000F0D2F860237B605F
:1003BC000023BB600023FB6000237B613B1D0822F4
:1003CC0019460D4801F0BAFE0346002B01D000F08F
:1003DC00BFF83B1D0C221946074801F0AFFE03463F
:1003EC00002B01D000F0B4F8034800F0B1F900BFC5
:1003FC002837BD4680BD00BF5000002000040040DF
:10040C0080B500AF114B124A1A60104B4FF4E13219
:10041C005A600E4B00229A600C4B0022DA600B4B98
:10042C0000221A61094B0C225A61084B00229A6176
:10043C00064B0022DA61054802F096FA0346002BBF
:10044C0001D000F085F800BF80BD00BF2001002066
:10045C000038014080B582B000AF104B5B690F4A89
:10046C0043F0010353610D4B5B6903F001037B60A7
:10047C007B68002200210C2000F0ADFC0C2000F069
:10048C00C6FC002200210D2000F0A5FC0D2000F080
:10049C00BEFC00BF0837BD4680BD00BF0010024047
:1004AC0080B588B000AF07F1100300221A605A60C3
:1004BC009A60DA60244B9B69234A43F010039361E2
:1004CC00214B9B6903F01003FB60FB681E4B9B697F
:1004DC001D4A43F0200393611B4B9B6903F02003DF
:1004EC00BB60BB68184B9B69174A43F008039361C8
:1004FC00154B9B6903F008037B607B68124B9B696F
:10050C00114A43F0040393610F4B9B6903F00403FE
:10051C003B603B6800224FF400510C4800F0FCFF9C
:10052C004FF400533B6101237B610023BB61022329
:10053C00FB6107F110031946044800F071FE00BF7F
:10054C002037BD4680BD00BF0010024000100140A6
:10055C0080B400AF72B600BF00BFFDE780B485B0B9
:10056C0000AF154B9B69144A43F001039361124B86
:10057C009B6903F00103BB60BB680F4BDB690E4A40
:10058C0043F08053D3610C4BDB6903F080537B60E9
:10059C007B680A4B5B68FB60FB6823F0E063FB60E5
:1005AC00FB6843F08063FB60044AFB68536000BF48
:1005BC001437BD4680BC704700100240000001405B
:1005CC0080B588B000AF786007F1100300221A6084
:1005DC005A609A60DA607B681B681C4A934231D17E
:1005EC001B4BDB691A4A43F00073D361184BDB6970
:1005FC0003F00073FB60FB68154B9B69144A43F0D6
:10060C0004039361124B9B6903F00403BB60BB684A
:10061C004FF400633B6100237B610023BB6107F156
:10062C00100319460B4800F0FBFD4FF480533B615F
:10063C0002237B610323FB6107F110031946054874
:10064C0000F0EEFD00BF2037BD4680BD00640040C9
:10065C00001002400008014080B584B000AF786003
:10066C007B681B68344A934261D1344BDB69334A53
:10067C0043F00203D361314BDB6903F00203FB60EF
:10068C00FB682F4B2F4A1A602D4B10225A602C4BB3
:10069C0000229A602A4B8022DA60294B4FF4807238
:1006AC001A61274B4FF480625A61254B00229A61E4
:1006BC00234B0022DA61224800F0C4FB0346002BD6
:1006CC0001D0FFF745FF7B681D4ADA621C4A7B6844
:1006DC0053621D4B1D4A1A601B4B10225A601A4B59
:1006EC0000229A60184B8022DA60174B4FF480720C
:1006FC001A61154B4FF480625A61134B00229A61B8
:10070C00114B0022DA61104800F09CFB0346002BD1
:10071C0001D0FFF71DFF7B680B4A1A630A4A7B68FE
:10072C0053627B68084A1A62074A7B68536200BFAF
:10073C001037BD4680BD00BF0004004000100240D1
:10074C00980000201C000240DC0000203000024019
:10075C0080B588B000AF786007F1100300221A60F2
:10076C005A609A60DA607B681B680F4A934217D113
:10077C000E4B9B690D4A43F0080393610B4B9B692D
:10078C0003F00803FB60FB6803233B6102237B61DE
:10079C000223FB6107F110031946054800F040FDE8
:1007AC0000BF2037BD4680BD000400400010024051
:1007BC00000C014080B588B000AF786007F11003E1
:1007CC0000221A605A609A60DA607B681B681C4AC7
:1007DC00934231D11B4B9B691A4A43F4804393617A
:1007EC00184B9B6903F48043FB60FB68154B9B69BA
:1007FC00144A43F004039361124B9B6903F0040306
:10080C00BB60BB684FF400733B6102237B61032325
:10081C00FB6107F1100319460B4800F001FD4FF482
:10082C0080633B6100237B610023BB6107F11003F4
:10083C001946054800F0F4FC00BF2037BD4680BDCA
:10084C0000380140001002400008014080B400AFA5
:10085C0000BFFDE780B400AF00BFFDE780B400AF80
:10086C0000BFFDE780B400AF00BFFDE780B400AF70
:10087C0000BFFDE780B400AF00BFBD4680BC704731
:10088C0080B400AF00BFBD4680BC704780B400AFE1
:10089C0000BFBD4680BC704780B500AF00F088F843
:1008AC0000BF80BD80B500AF024800F085FB00BFE3
:1008BC0080BD00BF9800002080B500AF024800F05A
:1008CC007BFB00BF80BD00BFDC00002080B400AF0C
:1008DC0000BFBD4680BC7047FFF7F8FF0B480C49C2
:1008EC000C4A002302E0D458C4500433C4188C4280
:1008FC00F9D3094A094C002301E013600432A242E7
:10090C00FBD302F017F9FFF755FC704700000020ED
:10091C000C000020DC2B00080C00002074010020CF
:10092C00FEE7000080B500AF084B1B68074A43F098
:10093C0010031360032000F043FA0F2000F008F8B6
:10094C00FFF70CFE0023184680BD00BF00200240BC
:10095C0080B582B000AF7860124B1A68124B1B78CE
:10096C0019464FF47A73B3FBF1F3B2FBF3F3184669
:10097C0000F05BFA0346002B01D001230EE07B68EC
:10098C000F2B0AD8002279684FF0FF3000F023FAC1
:10099C00064A7B681360002300E0012318460837E1
:1009AC00BD4680BD0000002008000020040000208F
:1009BC0080B400AF054B1B781A46054B1B681344DB
:1009CC00034A136000BFBD4680BC7047080000207E
:1009DC007001002080B400AF024B1B681846BD4666
:1009EC0080BC70477001002080B584B000AF786087
:1009FC00FFF7F0FFB8607B68FB60FB68B3F1FF3F6B
:100A0C0005D00A4B1B781A46FB681344FB6000BFE9
:100A1C00FFF7E0FF0246BB68D31AFA689A42F7D890
:100A2C0000BF00BF1037BD4680BD00BF08000020CE
:100A3C0080B584B000AF78607B68002B01D10123B6
:100A4C00EDE07B6893F82030DBB2002B02D17868A4
:100A5C00FFF7B6FD7B681B681A687B681B6842F061
:100A6C0001021A60FFF7B6FFF86012E0FFF7B2FF61
:100A7C000246FB68D31A0A2B0BD97B685B6A43F4DA
:100A8C0000327B685A627B68052283F820200123A0
:100A9C00C5E07B681B685B6803F00103002BE5D0A5
:100AAC007B681B681A687B681B6822F002021A605C
:100ABC00FFF790FFF86012E0FFF78CFF0246FB682F
:100ACC00D31A0A2B0BD97B685B6A43F400327B6820
:100ADC005A627B68052283F8202001239FE07B6803
:100AEC001B685B6803F00203002BE5D17B681B7E5F
:100AFC00012B08D17B681B681A687B681B6842F065
:100B0C0080021A6007E07B681B681A687B681B68A8
:100B1C0022F080021A607B685B7E012B08D17B6817
:100B2C001B681A687B681B6842F040021A6007E079
:100B3C007B681B681A687B681B6822F040021A608D
:100B4C007B689B7E012B08D17B681B681A687B68CD
:100B5C001B6842F020021A6007E07B681B681A6869
:100B6C007B681B6822F020021A607B68DB7E012BFD
:100B7C0008D17B681B681A687B681B6822F010021E
:100B8C001A6007E07B681B681A687B681B6842F078
:100B9C0010021A607B681B7F012B08D17B681B68D5
:100BAC001A687B681B6842F008021A6007E07B68D1
:100BBC001B681A687B681B6822F008021A607B6845
:100BCC005B7F012B08D17B681B681A687B681B68EC
:100BDC0042F004021A6007E07B681B681A687B68A5
:100BEC001B6822F004021A607B689A687B68DB68D9
:100BFC001A437B681B691A437B685B6942EA0301F1
:100C0C007B685B685A1E7B681B680A43DA617B68E9
:100C1C0000225A627B68012283F8202000231846A8
:100C2C001037BD4680BD000080B485B000AF786041
:100C3C007B6803F00703FB600C4BDB68BB60BA6896
:100C4C004FF6FF031340BB60FB681A02BB681343EB
:100C5C0043F0BF6343F40033BB60044ABB68D3600A
:100C6C0000BF1437BD4680BC704700BF00ED00E0EC
:100C7C0080B400AF044BDB681B0A03F00703184673
:100C8C00BD4680BC704700BF00ED00E080B483B06F
:100C9C0000AF0346FB7197F90730002B0BDBFB7998
:100CAC0003F01F02064997F907305B09012000FA8F
:100CBC0002F241F8232000BF0C37BD4680BC7047C0
:100CCC0000E100E080B483B000AF03463960FB71F3
:100CDC0097F90730002B0ADB3B68DAB20C4997F91D
:100CEC0007301201D2B20B4483F800230AE03B68B0
:100CFC00DAB20849FB7903F00F03043B1201D2B2BC
:100D0C000B441A7600BF0C37BD4680BC704700BF41
:100D1C0000E100E000ED00E080B489B000AFF860C5
:100D2C00B9607A60FB6803F00703FB61FB69C3F1F0
:100D3C000703042B28BF0423BB61FB690433062B78
:100D4C0002D9FB69033B00E000237B614FF0FF32CB
:100D5C00BB6902FA03F3DA43BB681A407B699A4019
:100D6C004FF0FF317B6901FA03F3D9437B680B40E9
:100D7C00134318462437BD4680BC704780B582B0FB
:100D8C0000AF78607B68013BB3F1807F01D3012316
:100D9C000FE00A4A7B68013B53600F214FF0FF3094
:100DAC00FFF790FF054B00229A60044B07221A6054
:100DBC00002318460837BD4680BD00BF10E000E098
:100DCC0080B582B000AF78607868FFF72DFF00BF68
:100DDC000837BD4680BD80B586B000AF0346B9600C
:100DEC007A60FB7300237B61FFF742FF78617A68BE
:100DFC00B9687869FFF790FF024697F90F301146F2
:100E0C001846FFF75FFF00BF1837BD4680BD80B5A1
:100E1C0082B000AF0346FB7197F907301846FFF715
:100E2C0035FF00BF0837BD4680BD80B582B000AF2E
:100E3C0078607868FFF7A2FF034618460837BD466E
:100E4C0080BD000080B485B000AF78600023FB60EB
:100E5C007B68002B01D1012343E07B681B681A4699
:100E6C00224B1344224AA2FB03231B099A007B68E2
:100E7C001A647B681F4ADA637B68022283F821209C
:100E8C007B681B681B68FB60FB6823F47F5323F0B3
:100E9C003003FB607B685A687B689B681A437B68ED
:100EAC00DB681A437B681B691A437B685B691A43CE
:100EBC007B689B691A437B68DB691343FA681343AD
:100ECC00FB607B681B68FA681A607B6800229A6377
:100EDC007B68012283F821207B68002283F8202084
:100EEC00002318461437BD4680BC7047F8FFFDBF81
:100EFC00CDCCCCCC0000024080B586B000AFF86001
:100F0C00B9607A603B600023FB75FB6893F8203076
:100F1C00012B01D102234BE0FB68012283F8202036
:100F2C00FB6893F82130DBB2012B3AD1FB6802222B
:100F3C0083F82120FB6800229A63FB681B681A68FF
:100F4C00FB681B6822F001021A603B687A68B9687A
:100F5C00F86800F037F9FB68DB6A002B08D0FB68F7
:100F6C001B681A68FB681B6842F00E021A600FE0DF
:100F7C00FB681B681A68FB681B6822F004021A6085
:100F8C00FB681B681A68FB681B6842F00A021A604F
:100F9C00FB681B681A68FB681B6842F001021A6048
:100FAC0005E0FB68002283F820200223FB75FB7D03
:100FBC0018461837BD4680BD80B584B000AF786048
:100FCC007B68DB6B1B68FB607B681B681B68BB600A
:100FDC007B681B6C04229A40FB681340002B4FD09B
:100FEC00BB6803F00403002B4AD07B681B681B68AA
:100FFC0003F02003002B07D17B681B681A687B6801
:10100C001B6822F004021A607B681B68664A9342D4
:10101C0029D07B681B68654A934222D07B681B6889
:10102C00634A93421AD07B681B68624A934212D07F
:10103C007B681B68604A93420AD07B681B685F4AD6
:10104C00934202D14FF480030EE04FF080630BE02B
:10105C004FF4802308E04FF4804305E04FF48063A5
:10106C0002E0402300E00423554A53607B68DB6AAE
:10107C00002B00F094807B68DB6A786898478EE0E0
:10108C007B681B6C02229A40FB681340002B56D0E5
:10109C00BB6803F00203002B51D07B681B681B68F4
:1010AC0003F02003002B0BD17B681B681A687B684C
:1010BC001B6822F00A021A607B68012283F8212047
:1010CC007B681B68384A934229D07B681B68374A77
:1010DC00934222D07B681B68354A93421AD07B68B6
:1010EC001B68344A934212D07B681B68324A934285
:1010FC000AD07B681B68314A934202D14FF400132B
:10110C000EE04FF000730BE04FF4003308E04FF4A7
:10111C00005305E04FF4007302E0202300E00223AB
:10112C00274A53607B68002283F820207B689B6AE7
:10113C00002B34D07B689B6A786898472FE07B68DB
:10114C001B6C08229A40FB681340002B28D0BB680C
:10115C0003F00803002B23D07B681B681A687B689C
:10116C001B6822F00E021A607B681A6C7B68DB6BC2
:10117C00012101FA02F25A607B6801229A637B68B2
:10118C00012283F821207B68002283F820207B68D1
:10119C001B6B002B04D07B681B6B7868984700BFD7
:1011AC0000BF1037BD4680BD080002401C00024045
:1011BC003000024044000240580002406C000240E3
:1011CC000000024080B485B000AFF860B9607A606E
:1011DC003B60FB681A6CFB68DB6B012101FA02F2C5
:1011EC005A60FB681B683A685A60FB685B68102B96
:1011FC0008D1FB681B687A689A60FB681B68BA6840
:10120C00DA6007E0FB681B68BA689A60FB681B68C9
:10121C007A68DA6000BF1437BD4680BC70470000A6
:10122C0080B48BB000AF7860396000237B62002300
:10123C003B6261E101227B6A02FA03F3FB613B68CA
:10124C001B68FA691340BB61BA69FB699A4240F0AA
:10125C0050813B685B68974A93425ED0954A9342B3
:10126C0075D8954A934258D0934A93426FD8934A73
:10127C00934252D0914A934269D8914A93424CD0AE
:10128C008F4A934263D88F4A934246D08D4A9342F9
:10129C005DD8122B2AD8122B59D801A252F823F060
:1012AC002713000801130008131300085513000836
:1012BC005B1300085B1300085B1300085B1300084A
:1012CC005B1300085B1300085B1300085B1300083A
:1012DC005B1300085B1300085B1300085B1300082A
:1012EC005B130008091300081D130008764A93428B
:1012FC0013D02CE03B68DB683B6229E03B68DB6881
:10130C0004333B6224E03B68DB6808333B621FE03C
:10131C003B68DB680C333B621AE03B689B68002B34
:10132C0002D104233B6213E03B689B68012B05D17F
:10133C0008233B627B68FA691A6109E008233B6267
:10134C007B68FA695A6103E000233B6200E000BF4E
:10135C00BB69FF2B01D87B6801E07B6804337B61A0
:10136C00BB69FF2B02D87B6A9B0002E07B6A083BBF
:10137C009B003B617B691A680F213B6901FA03F3FF
:10138C00DB431A40396A3B6901FA03F31A437B6960
:10139C001A603B685B6803F08053002B00F0A98057
:1013AC004A4B9B69494A43F001039361474B9B6944
:1013BC0003F00103BB60BB68454A7B6A9B080233A0
:1013CC0052F82330FB607B6A03F003039B000F226F
:1013DC0002FA03F3DB43FA681340FB607B683D4A77
:1013EC0093420DD07B683C4A934207D07B683B4AC2
:1013FC00934201D1022304E0032302E0012300E025
:10140C0000237A6A02F0030292009340FA681343B5
:10141C00FB602F497B6A9B080233FA6841F8232052
:10142C003B685B6803F48013002B06D02C4B9A6846
:10143C002B49BB6913438B6006E0294B9A68BB6947
:10144C00DB43274913408B603B685B6803F4001354
:10145C00002B06D0224BDA682149BB691343CB60C1
:10146C0006E01F4BDA68BB69DB431D491340CB60B8
:10147C003B685B6803F40033002B06D0184B5A68AA
:10148C001749BB6913434B6006E0154B5A68BB699F
:10149C00DB43134913404B603B685B6803F48033B8
:1014AC00002B1FD00E4B1A680D49BB6913430B6000
:1014BC001FE000BF000032100000311000002210AD
:1014CC00000021100000121000001110001002404A
:1014DC000000014000080140000C014000100140D8
:1014EC00000401400B4B1A68BB69DB4309491340EC
:1014FC000B607B6A01337B623B681A687B6A22FA59
:10150C0003F3002B7FF496AE00BF00BF2C37BD4613
:10151C0080BC70470004014080B483B000AF786099
:10152C000B467B8013467B707B78002B03D07A882C
:10153C007B681A6103E07B881A047B681A6100BF20
:10154C000C37BD4680BC704780B586B000AF786064
:10155C007B68002B01D1012372E27B681B6803F0CE
:10156C000103002B00F08780924B5B6803F00C03A7
:10157C00042B0CD08F4B5B6803F00C03082B12D19F
:10158C008C4B5B6803F48033B3F5803F0BD1894BF4
:10159C001B6803F40033002B6CD07B685B68002B5A
:1015AC0068D101234CE27B685B68B3F5803F06D1C0
:1015BC00804B1B687F4A43F4803313602EE07B68BA
:1015CC005B68002B0CD17B4B1B687A4A23F480336D
:1015DC001360784B1B68774A23F4802313601DE05B
:1015EC007B685B68B3F5A02F0CD1724B1B68714AFA
:1015FC0043F4802313606F4B1B686E4A43F48033B3
:10160C0013600BE06B4B1B686A4A23F48033136046
:10161C00684B1B68674A23F4802313607B685B6804
:10162C00002B13D0FFF7D6F9386108E0FFF7D2F999
:10163C0002463B69D31A642B01D9032300E25D4BAC
:10164C001B6803F40033002BF0D014E0FFF7C2F951
:10165C00386108E0FFF7BEF902463B69D31A642BE8
:10166C0001D90323ECE1534B1B6803F40033002B2B
:10167C00F0D100E000BF7B681B6803F00203002B75
:10168C0063D04C4B5B6803F00C03002B0BD0494B25
:10169C005B6803F00C03082B1CD1464B5B6803F40E
:1016AC008033002B16D1434B1B6803F00203002B35
:1016BC0005D07B681B69012B01D00123C0E13D4B98
:1016CC001B6823F0F8027B685B69DB003949134324
:1016DC000B603AE07B681B69002B20D0364B012253
:1016EC001A60FFF777F9386108E0FFF773F90246E3
:1016FC003B69D31A022B01D90323A1E12D4B1B68A3
:10170C0003F00203002BF0D02A4B1B6823F0F802E5
:10171C007B685B69DB00274913430B6015E0264BA4
:10172C0000221A60FFF756F9386108E0FFF752F90A
:10173C0002463B69D31A022B01D9032380E11D4BCE
:10174C001B6803F00203002BF0D17B681B6803F0CD
:10175C000803002B3AD07B689B69002B19D0174BE0
:10176C0001221A60FFF736F9386108E0FFF732F909
:10177C0002463B69D31A022B01D9032360E10D4BBE
:10178C005B6A03F00203002BF0D0012000F0CEFACC
:10179C001CE00A4B00221A60FFF71CF938610FE0BD
:1017AC00FFF718F902463B69D31A022B08D9032319
:1017BC0046E100BF00100240000042428004424259
:1017CC00924B5B6A03F00203002BE9D17B681B6828
:1017DC0003F00403002B00F0A6800023FB758B4B59
:1017EC00DB6903F08053002B0DD1884BDB69874AF2
:1017FC0043F08053D361854BDB6903F08053BB60AE
:10180C00BB680123FB75824B1B6803F48073002BB0
:10181C0018D17F4B1B687E4A43F480731360FFF72B
:10182C00D9F8386108E0FFF7D5F802463B69D31ABE
:10183C00642B01D9032303E1754B1B6803F48073FC
:10184C00002BF0D07B68DB68012B06D16F4B1B6A39
:10185C006E4A43F0010313622DE07B68DB68002BBA
:10186C000CD16A4B1B6A694A23F001031362674B64
:10187C001B6A664A23F0040313621CE07B68DB6876
:10188C00052B0CD1614B1B6A604A43F004031362B5
:10189C005E4B1B6A5D4A43F0010313620BE05B4B2A
:1018AC001B6A5A4A23F001031362584B1B6A574AAE
:1018BC0023F0040313627B68DB68002B15D0FFF761
:1018CC0089F838610AE0FFF785F802463B69D31ABC
:1018DC0041F28832934201D90323B1E04B4B1B6A8E
:1018EC0003F00203002BEED014E0FFF773F838611D
:1018FC000AE0FFF76FF802463B69D31A41F28832CF
:10190C00934201D903239BE0404B1B6A03F0020373
:10191C00002BEED1FB7D012B05D13C4BDB693B4A07
:10192C0023F08053D3617B68DB69002B00F0878048
:10193C00364B5B6803F00C03082B61D07B68DB69CA
:10194C00022B46D1334B00221A60FFF743F8386163
:10195C0008E0FFF73FF802463B69D31A022B01D986
:10196C0003236DE0294B1B6803F00073002BF0D1AF
:10197C007B681B6AB3F5803F08D1244B5B6823F46A
:10198C0000327B689B68214913434B601F4B5B689B
:10199C0023F474127B68196A7B685B6A0B431B49DE
:1019AC0013434B601B4B01221A60FFF713F838618D
:1019BC0008E0FFF70FF802463B69D31A022B01D956
:1019CC0003233DE0114B1B6803F00073002BF0D098
:1019DC0035E0104B00221A60FEF7FCFF386108E07E
:1019EC00FEF7F8FF02463B69D31A022B01D90323F9
:1019FC0026E0064B1B6803F00073002BF0D11EE0B1
:101A0C007B68DB69012B07D1012319E00010024030
:101A1C0000700040600042420B4B5B68FB60FB684F
:101A2C0003F480327B681B6A9A4206D1FB6803F48C
:101A3C0070127B685B6A9A4201D0012300E000239C
:101A4C0018461837BD4680BD0010024080B584B0E2
:101A5C0000AF786039607B68002B01D10123D0E0A6
:101A6C006A4B1B6803F007033A689A4210D9674B1C
:101A7C001B6823F0070265493B6813430B60634BFB
:101A8C001B6803F007033A689A4201D00123B8E0BF
:101A9C007B681B6803F00203002B20D07B681B685B
:101AAC0003F00403002B05D0594B5B68584A43F4F0
:101ABC00E06353607B681B6803F00803002B05D0C0
:101ACC00534B5B68524A43F460535360504B5B6812
:101ADC0023F0F0027B689B684D4913434B607B6895
:101AEC001B6803F00103002B40D07B685B68012B63
:101AFC0007D1474B1B6803F40033002B15D101238E
:101B0C007FE07B685B68022B07D1414B1B6803F0BD
:101B1C000073002B09D1012373E03D4B1B6803F0CC
:101B2C000203002B01D101236BE0394B5B6823F0DE
:101B3C0003027B685B68364913434B60FEF74AFF30
:101B4C00F8600AE0FEF746FF0246FB68D31A41F242
:101B5C008832934201D9032353E02D4B5B6803F089
:101B6C000C027B685B689B009A42EBD1274B1B688D
:101B7C0003F007033A689A4210D2244B1B6823F0F7
:101B8C00070222493B6813430B60204B1B6803F090
:101B9C0007033A689A4201D0012332E07B681B6844
:101BAC0003F00403002B08D0194B5B6823F4E062AC
:101BBC007B68DB68164913434B607B681B6803F03A
:101BCC000803002B09D0124B5B6823F460527B682E
:101BDC001B69DB000E4913434B6000F021F80246F1
:101BEC000B4B5B681B0903F00F030A49CB5C22FA11
:101BFC0003F3094A1360094B1B681846FEF7A8FE4D
:101C0C00002318461037BD4680BD00BF002002409F
:101C1C0000100240A82B0008000000200400002047
:101C2C0080B487B000AF0023FB600023BB600023AF
:101C3C007B6100237B6000233B611E4B5B68FB6078
:101C4C00FB6803F00C03042B02D0082B03D027E015
:101C5C00194B3B6127E0FB689B0C03F00F03174A01
:101C6C00D35C7B60FB6803F48033002B10D0114BEA
:101C7C005B685B0C03F00103114AD35CBB607B68AF
:101C8C000D4A03FB02F2BB68B2FBF3F37B6104E089
:101C9C007B680C4A02FB03F37B617B693B6102E0CE
:101CAC00054B3B6100BF3B6918461C37BD4680BCE9
:101CBC00704700BF0010024000127A00C02B0008D1
:101CCC00D02B000800093D0080B400AF024B1B680C
:101CDC001846BD4680BC70470000002080B500AFA0
:101CEC00FFF7F2FF0246054B5B681B0A03F0070384
:101CFC000349CB5C22FA03F3184680BD0010024066
:101D0C00B82B000880B500AFFFF7DEFF0246054B8D
:101D1C005B68DB0A03F007030349CB5C22FA03F38D
:101D2C00184680BD00100240B82B000880B485B066
:101D3C0000AF78600A4B1B680A4AA2FB03235B0ABC
:101D4C007A6802FB03F3FB6000BFFB685A1EFA6063
:101D5C00002BF9D100BF00BF1437BD4680BC7047C3
:101D6C0000000020D34D621080B582B000AF7860C7
:101D7C007B68002B01D1012341E07B6893F83D3057
:101D8C00DBB2002B06D17B68002283F83C207868FC
:101D9C00FEF762FC7B68022283F83D207B681A68A0
:101DAC007B6804331946104600F076FB7B680122F1
:101DBC0083F846207B68012283F83E207B68012251
:101DCC0083F83F207B68012283F840207B68012246
:101DDC0083F841207B68012283F842207B68012232
:101DEC0083F843207B68012283F844207B6801221E
:101DFC0083F845207B68012283F83D200023184698
:101E0C000837BD4680BD000080B586B000AFF860D5
:101E1C00B9607A607B800023FB75BB68002B09D10D
:101E2C00FB6893F83E30DBB2022B0CBF012300237E
:101E3C00DBB222E0BB68042B09D1FB6893F83F307E
:101E4C00DBB2022B0CBF01230023DBB215E0BB6815
:101E5C00082B09D1FB6893F84030DBB2022B0CBF86
:101E6C0001230023DBB208E0FB6893F84130DBB2BE
:101E7C00022B0CBF01230023DBB2002B01D0022369
:101E8C004EE1BB68002B09D1FB6893F83E30DBB206
:101E9C00012B0CBF01230023DBB222E0BB68042B17
:101EAC0009D1FB6893F83F30DBB2012B0CBF012347
:101EBC000023DBB215E0BB68082B09D1FB6893F853
:101ECC004030DBB2012B0CBF01230023DBB208E056
:101EDC00FB6893F84130DBB2012B0CBF01230023CC
:101EEC00DBB2002B24D07B68002B02D07B88002B2C
:101EFC0001D1012314E1BB68002B04D1FB68022241
:101F0C0083F83E2016E0BB68042B04D1FB68022248
:101F1C0083F83F200EE0BB68082B04D1FB6802223B
:101F2C0083F8402006E0FB68022283F8412001E0A0
:101F3C000123F5E0BB680C2B00F2AE8001A252F835
:101F4C0023F000BF851F0008A5200008A52000086D
:101F5C00A5200008CD1F0008A5200008A52000081A
:101F6C00A520000815200008A5200008A5200008C1
:101F7C00A52000085D200008FB685B6A6A4A9A622B
:101F8C00FB685B6A694ADA62FB685B6A684A1A63D7
:101F9C00FB68586A7968FB681B6834331A467B887F
:101FAC00FEF7AAFF0346002B01D00123B8E0FB6823
:101FBC001B68DA68FB681B6842F40072DA606EE03A
:101FCC00FB689B6A584A9A62FB689B6A574ADA62BA
:101FDC00FB689B6A564A1A63FB68986A7968FB68C7
:101FEC001B6838331A467B88FEF786FF0346002BA6
:101FFC0001D0012394E0FB681B68DA68FB681B685E
:10200C0042F48062DA604AE0FB68DB6A464A9A6214
:10201C00FB68DB6A454ADA62FB68DB6A444A1A638E
:10202C00FB68D86A7968FB681B683C331A467B8866
:10203C00FEF762FF0346002B01D0012370E0FB6822
:10204C001B68DA68FB681B6842F40062DA6026E001
:10205C00FB681B6B344A9A62FB681B6B334ADA626F
:10206C00FB681B6B324A1A63FB68186B7968FB6858
:10207C001B6840331A467B88FEF73EFF0346002B55
:10208C0001D001234CE0FB681B68DA68FB681B6815
:10209C0042F48052DA6002E00123FB7500BFFB7D45
:1020AC00002B3CD1FB681B680122B968184600F074
:1020BC00DFFBFB681B681F4A934207D1FB681B6858
:1020CC005A6CFB681B6842F400425A64FB681B683C
:1020DC00184A934209D0FB681B68B3F1804F04D0B7
:1020EC00FB681B68144A934211D1FB681B689B6800
:1020FC0003F007033B613B69062B10D0FB681B68A0
:10210C001A68FB681B6842F001021A6007E0FB6862
:10211C001B681A68FB681B6842F001021A60FB7DA1
:10212C0018461837BD4680BD952300083D2400088D
:10213C0003230008002C01400004004080B586B049
:10214C0000AFF860B9607A600023FB75FB6893F808
:10215C003C30012B01D10223AEE0FB68012283F855
:10216C003C207B680C2B00F29F8001A252F823F0DC
:10217C00B1210008B5220008B5220008B5220008DC
:10218C00F1210008B5220008B5220008B52200088C
:10219C0033220008B5220008B5220008B522000839
:1021AC0073220008FB681B68B968184600F0D8F960
:1021BC00FB681B689A69FB681B6842F008029A610D
:1021CC00FB681B689A69FB681B6822F004029A6121
:1021DC00FB681B689969BB681A69FB681B680A4332
:1021EC009A6164E0FB681B68B968184600F01EFA37
:1021FC00FB681B689A69FB681B6842F400629A6171
:10220C00FB681B689A69FB681B6822F480629A6100
:10221C00FB681B689969BB681B691A02FB681B6821
:10222C000A439A6143E0FB681B68B968184600F0E2
:10223C0067FAFB681B68DA69FB681B6842F00802E6
:10224C00DA61FB681B68DA69FB681B6822F0040220
:10225C00DA61FB681B68D969BB681A69FB681B6883
:10226C000A43DA6123E0FB681B68B968184600F082
:10227C00B1FAFB681B68DA69FB681B6842F4006200
:10228C00DA61FB681B68DA69FB681B6822F4806200
:10229C00DA61FB681B68D969BB681B691A02FB68A9
:1022AC001B680A43DA6102E00123FB7500BFFB687F
:1022BC00002283F83C20FB7D18461837BD4680BDB4
:1022CC0080B483B000AF786000BF0C37BD4680BCD3
:1022DC00704780B483B000AF786000BF0C37BD4648
:1022EC0080BC704780B483B000AF786000BF0C37FF
:1022FC00BD4680BC704780B584B000AF78607B6809
:10230C005B6AFB60FB685B6A7A689A4207D1FB6880
:10231C0001221A77FB68012283F83E202AE0FB6831
:10232C009B6A7A689A4207D1FB6802221A77FB688B
:10233C00012283F83F201DE0FB68DB6A7A689A4231
:10234C0007D1FB6804221A77FB68012283F840202E
:10235C0010E0FB681B6B7A689A4207D1FB68082275
:10236C001A77FB68012283F8412003E0FB68012205
:10237C0083F83D20F868FFF7B5FFFB6800221A7759
:10238C0000BF1037BD4680BD80B584B000AF78600B
:10239C007B685B6AFB60FB685B6A7A689A420BD16C
:1023AC00FB6801221A777B689B69002B36D1FB688E
:1023BC00012283F83E2031E0FB689B6A7A689A42DE
:1023CC000BD1FB6802221A777B689B69002B25D105
:1023DC00FB68012283F83F2020E0FB68DB6A7A6807
:1023EC009A420BD1FB6804221A777B689B69002BFD
:1023FC0014D1FB68012283F840200FE0FB681B6BB3
:10240C007A689A420AD1FB6808221A777B689B6922
:10241C00002B03D1FB68012283F84120F868FFF7F9
:10242C004FFFFB6800221A7700BF1037BD4680BDF6
:10243C0080B584B000AF78607B685B6AFB60FB683A
:10244C005B6A7A689A4203D1FB6801221A7719E019
:10245C00FB689B6A7A689A4203D1FB6802221A775E
:10246C0010E0FB68DB6A7A689A4203D1FB680422AD
:10247C001A7707E0FB681B6B7A689A4202D1FB68FB
:10248C0008221A77F868FFF724FFFB6800221A77F6
:10249C0000BF1037BD4680BD80B485B000AF7860FA
:1024AC0039607B681B68FB607B682B4A934207D0C2
:1024BC007B68B3F1804F03D07B68284A934208D1E4
:1024CC00FB6823F07003FB603B685B68FA6813439E
:1024DC00FB607B68204A934207D07B68B3F1804F46
:1024EC0003D07B681D4A934208D1FB6823F44073E8
:1024FC00FB603B68DB68FA681343FB60FB6823F006
:10250C0080023B685B691343FB607B68FA681A6066
:10251C003B689A687B68DA623B681A687B689A62E7
:10252C007B680D4A934203D13B681A697B681A6336
:10253C007B6801225A617B681B6903F00103002B45
:10254C0005D07B681B6923F001027B681A6100BF10
:10255C001437BD4680BC7047002C0140000400407D
:10256C0080B487B000AF786039607B681B6A7B6190
:10257C007B681B6A23F001027B681A627B685B68CC
:10258C003B617B689B69FB60FB6823F07003FB601D
:10259C00FB6823F00303FB603B681B68FA6813437A
:1025AC00FB607B6923F002037B613B689B687A6963
:1025BC0013437B617B681C4A93420CD17B6923F0EB
:1025CC0008037B613B68DB687A6913437B617B6939
:1025DC0023F004037B617B68134A934211D13B695E
:1025EC0023F480733B613B6923F400733B613B68CC
:1025FC005B693A6913433B613B689B693A691343D6
:10260C003B617B683A695A607B68FA689A613B68FF
:10261C005A687B685A637B687A691A6200BF1C37F8
:10262C00BD4680BC704700BF002C014080B487B011
:10263C0000AF786039607B681B6A7B617B681B6AC2
:10264C0023F010027B681A627B685B683B617B68D5
:10265C009B69FB60FB6823F4E043FB60FB6823F49D
:10266C004073FB603B681B681B02FA681343FB60FA
:10267C007B6923F020037B613B689B681B017A69B3
:10268C0013437B617B681D4A93420DD17B6923F018
:10269C0080037B613B68DB681B017A6913437B61B8
:1026AC007B6923F040037B617B68144A934213D10E
:1026BC003B6923F480633B613B6923F400633B611A
:1026CC003B685B699B003A6913433B613B689B69C0
:1026DC009B003A6913433B617B683A695A607B689B
:1026EC00FA689A613B685A687B689A637B687A6976
:1026FC001A6200BF1C37BD4680BC7047002C0140DD
:10270C0080B487B000AF786039607B681B6A7B61EE
:10271C007B681B6A23F480727B681A627B685B6837
:10272C003B617B68DB69FB60FB6823F07003FB603B
:10273C00FB6823F00303FB603B681B68FA681343D8
:10274C00FB607B6923F400737B613B689B681B0215
:10275C007A6913437B617B681D4A93420DD17B6977
:10276C0023F400637B613B68DB681B027A691343CB
:10277C007B617B6923F480637B617B68144A9342A1
:10278C0013D13B6923F480533B613B6923F4005321
:10279C003B613B685B691B013A6913433B613B68D6
:1027AC009B691B013A6913433B617B683A695A6028
:1027BC007B68FA68DA613B685A687B68DA637B6825
:1027CC007A691A6200BF1C37BD4680BC704700BFD7
:1027DC00002C014080B487B000AF786039607B6812
:1027EC001B6A3B617B681B6A23F480527B681A620C
:1027FC007B685B687B617B68DB69FB60FB6823F44F
:10280C00E043FB60FB6823F44073FB603B681B6890
:10281C001B02FA681343FB603B6923F400533B61D2
:10282C003B689B681B033A6913433B617B680F4A07
:10283C00934209D17B6923F480437B613B685B69DC
:10284C009B017A6913437B617B687A695A607B6868
:10285C00FA68DA613B685A687B681A647B683A6983
:10286C001A6200BF1C37BD4680BC7047002C01406B
:10287C0080B487B000AFF860B9607A60BB6803F0D1
:10288C001F03012202FA03F37B61FB681A6A7B695E
:10289C00DB431A40FB681A62FB681A6ABB6803F0D8
:1028AC001F03796801FA03F31A43FB681A6200BF2D
:1028BC001C37BD4680BC704780B485B000AF7860D3
:1028CC0039607B6893F83C30012B01D1022341E045
:1028DC007B68012283F83C207B68022283F83D2030
:1028EC007B681B685B68FB607B681B689B68BB60D4
:1028FC00FB6823F07003FB603B681B68FA681343AA
:10290C00FB607B681B68FA685A607B681B68144A1A
:10291C00934209D07B681B68B3F1804F04D07B686D
:10292C001B68104A93420CD1BB6823F08003BB6038
:10293C003B685B68BA681343BB607B681B68BA680A
:10294C009A607B68012283F83D207B68002283F823
:10295C003C20002318461437BD4680BC704700BF8E
:10296C00002C01400004004080B582B000AF7860BC
:10297C007B68002B01D1012342E07B6893F8413046
:10298C00DBB2002B06D17B68002283F840207868EC
:10299C00FDF710FF7B68242283F841207B681B68BD
:1029AC00DA687B681B6822F40052DA60786800F001
:1029BC002BF87B681B681A697B681B6822F49042B1
:1029CC001A617B681B685A697B681B6822F02A02B3
:1029DC005A617B681B68DA687B681B6842F400529A
:1029EC00DA607B6800225A647B68202283F84120DD
:1029FC007B68202283F842207B6800225A630023E4
:102A0C0018460837BD4680BD80B584B000AF7860ED
:102A1C007B681B681B6923F440517B68DA687B6810
:102A2C001B680A431A617B689A687B681B691A43A6
:102A3C007B685B691343BB607B681B68DB6823F4B2
:102A4C00B05323F00C037A681268B9680B43D36057
:102A5C007B681B685B6923F440717B689A697B68AF
:102A6C001B680A435A617B681B682C4A934203D14A
:102A7C00FFF748F9F86002E0FFF730F9F860FA6800
:102A8C0013469B0013449A001A447B685B689B00B6
:102A9C00B2FBF3F3224AA2FB03235B091901FA6888
:102AAC0013469B0013449A001A447B685B689B0096
:102ABC00B2FBF3F21A4BA3FB02035B09642000FB8D
:102ACC0003F3D31A1B013233154AA2FB03235B0910
:102ADC0003F0F0031944FA6813469B0013449A0060
:102AEC001A447B685B689B00B2FBF3F20C4BA3FBB4
:102AFC0002035B09642000FB03F3D31A1B0132337E
:102B0C00074AA2FB03235B0903F00F027B681B68D7
:102B1C000A449A6000BF1037BD4680BD00380140A2
:102B2C001F85EB5103460244934200D1704703F8D2
:102B3C00011BF9E770B500260C4D0D4C641BA4105D
:102B4C00A64209D100F01AF800260A4D0A4C641B63
:102B5C00A410A64205D170BD55F8043B9847013628
:102B6C00EEE755F8043B98470136F2E7D42B000802
:102B7C00D42B0008D42B0008D82B0008F8B500BFC4
:102B8C00F8BC08BC9E467047F8B500BFF8BC08BC42
:042B9C009E4670479A
:102BA0000000000000000000000000000000000025
:102BB00001020304060708090000000001020304E3
:102BC00002030405060708090A0B0C0D0E0F10106E
:042BD00001020000FE
:042BD40031010008C3
:042BD8000D010008E3
:0C2BDC0000127A00100000000100000050
:04000005080008E502
:00000001FF
